{
  "_format": "hh-sol-artifact-1",
  "contractName": "Doc",
  "sourceName": "contracts/Doc.sol",
  "abi": [
    {
      "inputs": [],
      "stateMutability": "nonpayable",
      "type": "constructor"
    },
    {
      "anonymous": false,
      "inputs": [
        {
          "indexed": true,
          "internalType": "address",
          "name": "owner",
          "type": "address"
        },
        {
          "indexed": true,
          "internalType": "address",
          "name": "approved",
          "type": "address"
        },
        {
          "indexed": true,
          "internalType": "uint256",
          "name": "tokenId",
          "type": "uint256"
        }
      ],
      "name": "Approval",
      "type": "event"
    },
    {
      "anonymous": false,
      "inputs": [
        {
          "indexed": true,
          "internalType": "address",
          "name": "owner",
          "type": "address"
        },
        {
          "indexed": true,
          "internalType": "address",
          "name": "operator",
          "type": "address"
        },
        {
          "indexed": false,
          "internalType": "bool",
          "name": "approved",
          "type": "bool"
        }
      ],
      "name": "ApprovalForAll",
      "type": "event"
    },
    {
      "anonymous": false,
      "inputs": [
        {
          "indexed": true,
          "internalType": "address",
          "name": "from",
          "type": "address"
        },
        {
          "indexed": true,
          "internalType": "address",
          "name": "to",
          "type": "address"
        },
        {
          "indexed": true,
          "internalType": "uint256",
          "name": "tokenId",
          "type": "uint256"
        }
      ],
      "name": "Transfer",
      "type": "event"
    },
    {
      "inputs": [
        {
          "internalType": "address",
          "name": "to",
          "type": "address"
        },
        {
          "internalType": "uint256",
          "name": "tokenId",
          "type": "uint256"
        }
      ],
      "name": "approve",
      "outputs": [],
      "stateMutability": "nonpayable",
      "type": "function"
    },
    {
      "inputs": [
        {
          "internalType": "address",
          "name": "owner",
          "type": "address"
        }
      ],
      "name": "balanceOf",
      "outputs": [
        {
          "internalType": "uint256",
          "name": "",
          "type": "uint256"
        }
      ],
      "stateMutability": "view",
      "type": "function"
    },
    {
      "inputs": [
        {
          "internalType": "address",
          "name": "newowner",
          "type": "address"
        },
        {
          "internalType": "string",
          "name": "tokenURI",
          "type": "string"
        }
      ],
      "name": "docuMint",
      "outputs": [
        {
          "internalType": "uint256",
          "name": "",
          "type": "uint256"
        }
      ],
      "stateMutability": "nonpayable",
      "type": "function"
    },
    {
      "inputs": [],
      "name": "entity",
      "outputs": [
        {
          "internalType": "uint256",
          "name": "",
          "type": "uint256"
        }
      ],
      "stateMutability": "view",
      "type": "function"
    },
    {
      "inputs": [
        {
          "internalType": "uint256",
          "name": "tokenId",
          "type": "uint256"
        }
      ],
      "name": "getApproved",
      "outputs": [
        {
          "internalType": "address",
          "name": "",
          "type": "address"
        }
      ],
      "stateMutability": "view",
      "type": "function"
    },
    {
      "inputs": [
        {
          "internalType": "address",
          "name": "owner",
          "type": "address"
        },
        {
          "internalType": "address",
          "name": "operator",
          "type": "address"
        }
      ],
      "name": "isApprovedForAll",
      "outputs": [
        {
          "internalType": "bool",
          "name": "",
          "type": "bool"
        }
      ],
      "stateMutability": "view",
      "type": "function"
    },
    {
      "inputs": [
        {
          "internalType": "address",
          "name": "newowner",
          "type": "address"
        }
      ],
      "name": "mintVerify",
      "outputs": [
        {
          "internalType": "uint256",
          "name": "",
          "type": "uint256"
        }
      ],
      "stateMutability": "view",
      "type": "function"
    },
    {
      "inputs": [],
      "name": "name",
      "outputs": [
        {
          "internalType": "string",
          "name": "",
          "type": "string"
        }
      ],
      "stateMutability": "view",
      "type": "function"
    },
    {
      "inputs": [
        {
          "internalType": "uint256",
          "name": "tokenId",
          "type": "uint256"
        }
      ],
      "name": "ownerOf",
      "outputs": [
        {
          "internalType": "address",
          "name": "",
          "type": "address"
        }
      ],
      "stateMutability": "view",
      "type": "function"
    },
    {
      "inputs": [
        {
          "internalType": "address",
          "name": "from",
          "type": "address"
        },
        {
          "internalType": "address",
          "name": "to",
          "type": "address"
        },
        {
          "internalType": "uint256",
          "name": "tokenId",
          "type": "uint256"
        }
      ],
      "name": "safeTransferFrom",
      "outputs": [],
      "stateMutability": "nonpayable",
      "type": "function"
    },
    {
      "inputs": [
        {
          "internalType": "address",
          "name": "from",
          "type": "address"
        },
        {
          "internalType": "address",
          "name": "to",
          "type": "address"
        },
        {
          "internalType": "uint256",
          "name": "tokenId",
          "type": "uint256"
        },
        {
          "internalType": "bytes",
          "name": "_data",
          "type": "bytes"
        }
      ],
      "name": "safeTransferFrom",
      "outputs": [],
      "stateMutability": "nonpayable",
      "type": "function"
    },
    {
      "inputs": [
        {
          "internalType": "address",
          "name": "operator",
          "type": "address"
        },
        {
          "internalType": "bool",
          "name": "approved",
          "type": "bool"
        }
      ],
      "name": "setApprovalForAll",
      "outputs": [],
      "stateMutability": "nonpayable",
      "type": "function"
    },
    {
      "inputs": [
        {
          "internalType": "bytes4",
          "name": "interfaceId",
          "type": "bytes4"
        }
      ],
      "name": "supportsInterface",
      "outputs": [
        {
          "internalType": "bool",
          "name": "",
          "type": "bool"
        }
      ],
      "stateMutability": "view",
      "type": "function"
    },
    {
      "inputs": [],
      "name": "symbol",
      "outputs": [
        {
          "internalType": "string",
          "name": "",
          "type": "string"
        }
      ],
      "stateMutability": "view",
      "type": "function"
    },
    {
      "inputs": [
        {
          "internalType": "uint256",
          "name": "tokenId",
          "type": "uint256"
        }
      ],
      "name": "tokenURI",
      "outputs": [
        {
          "internalType": "string",
          "name": "",
          "type": "string"
        }
      ],
      "stateMutability": "view",
      "type": "function"
    },
    {
      "inputs": [
        {
          "internalType": "address",
          "name": "from",
          "type": "address"
        },
        {
          "internalType": "address",
          "name": "to",
          "type": "address"
        },
        {
          "internalType": "uint256",
          "name": "tokenId",
          "type": "uint256"
        }
      ],
      "name": "transferFrom",
      "outputs": [],
      "stateMutability": "nonpayable",
      "type": "function"
    },
    {
      "inputs": [
        {
          "internalType": "address",
          "name": "",
          "type": "address"
        }
      ],
      "name": "users",
      "outputs": [
        {
          "internalType": "address",
          "name": "curruser",
          "type": "address"
        },
        {
          "internalType": "uint256",
          "name": "tokenid",
          "type": "uint256"
        }
      ],
      "stateMutability": "view",
      "type": "function"
    },
    {
      "inputs": [],
      "name": "verify",
      "outputs": [
        {
          "internalType": "uint256",
          "name": "",
          "type": "uint256"
        }
      ],
      "stateMutability": "view",
      "type": "function"
    }
  ],
  "bytecode": "0x60806040523480156200001157600080fd5b506040518060400160405280601481526020017f446f637520547261636b204f70656e20546573740000000000000000000000008152506040518060400160405280600381526020017f445554000000000000000000000000000000000000000000000000000000000081525081600090805190602001906200009692919062000139565b508060019080519060200190620000af92919062000139565b50505033600860003373ffffffffffffffffffffffffffffffffffffffff1673ffffffffffffffffffffffffffffffffffffffff16815260200190815260200160002060000160006101000a81548173ffffffffffffffffffffffffffffffffffffffff021916908373ffffffffffffffffffffffffffffffffffffffff1602179055506200024e565b8280546200014790620001e9565b90600052602060002090601f0160209004810192826200016b5760008555620001b7565b82601f106200018657805160ff1916838001178555620001b7565b82800160010185558215620001b7579182015b82811115620001b657825182559160200191906001019062000199565b5b509050620001c69190620001ca565b5090565b5b80821115620001e5576000816000905550600101620001cb565b5090565b600060028204905060018216806200020257607f821691505b602082108114156200021957620002186200021f565b5b50919050565b7f4e487b7100000000000000000000000000000000000000000000000000000000600052602260045260246000fd5b61319c806200025e6000396000f3fe608060405234801561001057600080fd5b50600436106101165760003560e01c80636cdbbc66116100a2578063a87430ba11610071578063a87430ba14610305578063b88d4fde14610336578063c87b56dd14610352578063e985e9c514610382578063fc735e99146103b257610116565b80636cdbbc661461027d57806370a082311461029b57806395d89b41146102cb578063a22cb465146102e957610116565b80631accc5fb116100e95780631accc5fb146101b557806323b872dd146101e557806342842e0e146102015780636352211e1461021d578063677e071d1461024d57610116565b806301ffc9a71461011b57806306fdde031461014b578063081812fc14610169578063095ea7b314610199575b600080fd5b610135600480360381019061013091906121f0565b6103d0565b604051610142919061261f565b60405180910390f35b6101536104b2565b604051610160919061263a565b60405180910390f35b610183600480360381019061017e9190612242565b610544565b604051610190919061258f565b60405180910390f35b6101b360048036038101906101ae91906121b4565b6105c9565b005b6101cf60048036038101906101ca9190611ff5565b6106e1565b6040516101dc919061288c565b60405180910390f35b6101ff60048036038101906101fa919061205a565b61072d565b005b61021b6004803603810190610216919061205a565b61078d565b005b61023760048036038101906102329190612242565b6107ad565b604051610244919061258f565b60405180910390f35b61026760048036038101906102629190612160565b61085f565b604051610274919061288c565b60405180910390f35b610285610a32565b604051610292919061288c565b60405180910390f35b6102b560048036038101906102b09190611ff5565b610aa6565b6040516102c2919061288c565b60405180910390f35b6102d3610b5e565b6040516102e0919061263a565b60405180910390f35b61030360048036038101906102fe9190612124565b610bf0565b005b61031f600480360381019061031a9190611ff5565b610c06565b60405161032d9291906125f6565b60405180910390f35b610350600480360381019061034b91906120a9565b610c4a565b005b61036c60048036038101906103679190612242565b610cac565b604051610379919061263a565b60405180910390f35b61039c6004803603810190610397919061201e565b610dfe565b6040516103a9919061261f565b60405180910390f35b6103ba610e92565b6040516103c7919061288c565b60405180910390f35b60007f80ac58cd000000000000000000000000000000000000000000000000000000007bffffffffffffffffffffffffffffffffffffffffffffffffffffffff1916827bffffffffffffffffffffffffffffffffffffffffffffffffffffffff1916148061049b57507f5b5e139f000000000000000000000000000000000000000000000000000000007bffffffffffffffffffffffffffffffffffffffffffffffffffffffff1916827bffffffffffffffffffffffffffffffffffffffffffffffffffffffff1916145b806104ab57506104aa82610edc565b5b9050919050565b6060600080546104c190612ae2565b80601f01602080910402602001604051908101604052809291908181526020018280546104ed90612ae2565b801561053a5780601f1061050f5761010080835404028352916020019161053a565b820191906000526020600020905b81548152906001019060200180831161051d57829003601f168201915b5050505050905090565b600061054f82610f46565b61058e576040517f08c379a00000000000000000000000000000000000000000000000000000000081526004016105859061280c565b60405180910390fd5b6004600083815260200190815260200160002060009054906101000a900473ffffffffffffffffffffffffffffffffffffffff169050919050565b60006105d4826107ad565b90508073ffffffffffffffffffffffffffffffffffffffff168373ffffffffffffffffffffffffffffffffffffffff161415610645576040517f08c379a000000000000000000000000000000000000000000000000000000000815260040161063c9061284c565b60405180910390fd5b8073ffffffffffffffffffffffffffffffffffffffff16610664610fb2565b73ffffffffffffffffffffffffffffffffffffffff16148061069357506106928161068d610fb2565b610dfe565b5b6106d2576040517f08c379a00000000000000000000000000000000000000000000000000000000081526004016106c99061274c565b60405180910390fd5b6106dc8383610fba565b505050565b6000600860008373ffffffffffffffffffffffffffffffffffffffff1673ffffffffffffffffffffffffffffffffffffffff168152602001908152602001600020600101549050919050565b61073e610738610fb2565b82611073565b61077d576040517f08c379a00000000000000000000000000000000000000000000000000000000081526004016107749061286c565b60405180910390fd5b610788838383611151565b505050565b6107a883838360405180602001604052806000815250610c4a565b505050565b6000806002600084815260200190815260200160002060009054906101000a900473ffffffffffffffffffffffffffffffffffffffff169050600073ffffffffffffffffffffffffffffffffffffffff168173ffffffffffffffffffffffffffffffffffffffff161415610856576040517f08c379a000000000000000000000000000000000000000000000000000000000815260040161084d9061278c565b60405180910390fd5b80915050919050565b60006108e26040518060400160405280601081526020017f636865636b2049442065786973743a2000000000000000000000000000000000815250600860008673ffffffffffffffffffffffffffffffffffffffff1673ffffffffffffffffffffffffffffffffffffffff168152602001908152602001600020600101546113b8565b6000600860008573ffffffffffffffffffffffffffffffffffffffff1673ffffffffffffffffffffffffffffffffffffffff1681526020019081526020016000206001015414156109e8576109376007611454565b6000610943600761146a565b905061094f8482611478565b6109598184611652565b80600860008673ffffffffffffffffffffffffffffffffffffffff1673ffffffffffffffffffffffffffffffffffffffff168152602001908152602001600020600101819055506109df6040518060400160405280600681526020017f4e65772049440000000000000000000000000000000000000000000000000000815250826113b8565b80915050610a2c565b610a266040518060400160405280601381526020017f43616e27742062652061646465642031303030000000000000000000000000008152506116c6565b6103e890505b92915050565b6000610a9f600860003373ffffffffffffffffffffffffffffffffffffffff1673ffffffffffffffffffffffffffffffffffffffff16815260200190815260200160002060000160009054906101000a900473ffffffffffffffffffffffffffffffffffffffff1661175f565b6005905090565b60008073ffffffffffffffffffffffffffffffffffffffff168273ffffffffffffffffffffffffffffffffffffffff161415610b17576040517f08c379a0000000000000000000000000000000000000000000000000000000008152600401610b0e9061276c565b60405180910390fd5b600360008373ffffffffffffffffffffffffffffffffffffffff1673ffffffffffffffffffffffffffffffffffffffff168152602001908152602001600020549050919050565b606060018054610b6d90612ae2565b80601f0160208091040260200160405190810160405280929190818152602001828054610b9990612ae2565b8015610be65780601f10610bbb57610100808354040283529160200191610be6565b820191906000526020600020905b815481529060010190602001808311610bc957829003601f168201915b5050505050905090565b610c02610bfb610fb2565b83836117f8565b5050565b60086020528060005260406000206000915090508060000160009054906101000a900473ffffffffffffffffffffffffffffffffffffffff16908060010154905082565b610c5b610c55610fb2565b83611073565b610c9a576040517f08c379a0000000000000000000000000000000000000000000000000000000008152600401610c919061286c565b60405180910390fd5b610ca684848484611965565b50505050565b6060610cb782610f46565b610cf6576040517f08c379a0000000000000000000000000000000000000000000000000000000008152600401610ced906127ec565b60405180910390fd5b6000600660008481526020019081526020016000208054610d1690612ae2565b80601f0160208091040260200160405190810160405280929190818152602001828054610d4290612ae2565b8015610d8f5780601f10610d6457610100808354040283529160200191610d8f565b820191906000526020600020905b815481529060010190602001808311610d7257829003601f168201915b505050505090506000610da06119c1565b9050600081511415610db6578192505050610df9565b600082511115610deb578082604051602001610dd392919061256b565b60405160208183030381529060405292505050610df9565b610df4846119d8565b925050505b919050565b6000600560008473ffffffffffffffffffffffffffffffffffffffff1673ffffffffffffffffffffffffffffffffffffffff16815260200190815260200160002060008373ffffffffffffffffffffffffffffffffffffffff1673ffffffffffffffffffffffffffffffffffffffff16815260200190815260200160002060009054906101000a900460ff16905092915050565b6000600860003373ffffffffffffffffffffffffffffffffffffffff1673ffffffffffffffffffffffffffffffffffffffff16815260200190815260200160002060010154905090565b60007f01ffc9a7000000000000000000000000000000000000000000000000000000007bffffffffffffffffffffffffffffffffffffffffffffffffffffffff1916827bffffffffffffffffffffffffffffffffffffffffffffffffffffffff1916149050919050565b60008073ffffffffffffffffffffffffffffffffffffffff166002600084815260200190815260200160002060009054906101000a900473ffffffffffffffffffffffffffffffffffffffff1673ffffffffffffffffffffffffffffffffffffffff1614159050919050565b600033905090565b816004600083815260200190815260200160002060006101000a81548173ffffffffffffffffffffffffffffffffffffffff021916908373ffffffffffffffffffffffffffffffffffffffff160217905550808273ffffffffffffffffffffffffffffffffffffffff1661102d836107ad565b73ffffffffffffffffffffffffffffffffffffffff167f8c5be1e5ebec7d5bd14f71427d1e84f3dd0314c0f7b2291e5b200ac8c7c3b92560405160405180910390a45050565b600061107e82610f46565b6110bd576040517f08c379a00000000000000000000000000000000000000000000000000000000081526004016110b49061272c565b60405180910390fd5b60006110c8836107ad565b90508073ffffffffffffffffffffffffffffffffffffffff168473ffffffffffffffffffffffffffffffffffffffff16148061110a57506111098185610dfe565b5b8061114857508373ffffffffffffffffffffffffffffffffffffffff1661113084610544565b73ffffffffffffffffffffffffffffffffffffffff16145b91505092915050565b8273ffffffffffffffffffffffffffffffffffffffff16611171826107ad565b73ffffffffffffffffffffffffffffffffffffffff16146111c7576040517f08c379a00000000000000000000000000000000000000000000000000000000081526004016111be906126ac565b60405180910390fd5b600073ffffffffffffffffffffffffffffffffffffffff168273ffffffffffffffffffffffffffffffffffffffff161415611237576040517f08c379a000000000000000000000000000000000000000000000000000000000815260040161122e906126ec565b60405180910390fd5b611242838383611a7f565b61124d600082610fba565b6001600360008573ffffffffffffffffffffffffffffffffffffffff1673ffffffffffffffffffffffffffffffffffffffff168152602001908152602001600020600082825461129d91906129f8565b925050819055506001600360008473ffffffffffffffffffffffffffffffffffffffff1673ffffffffffffffffffffffffffffffffffffffff16815260200190815260200160002060008282546112f49190612971565b92505081905550816002600083815260200190815260200160002060006101000a81548173ffffffffffffffffffffffffffffffffffffffff021916908373ffffffffffffffffffffffffffffffffffffffff160217905550808273ffffffffffffffffffffffffffffffffffffffff168473ffffffffffffffffffffffffffffffffffffffff167fddf252ad1be2c89b69c2b068fc378daa952ba7f163c4a11628f55a4df523b3ef60405160405180910390a46113b3838383611a84565b505050565b61145082826040516024016113ce92919061265c565b6040516020818303038152906040527f9710a9d0000000000000000000000000000000000000000000000000000000007bffffffffffffffffffffffffffffffffffffffffffffffffffffffff19166020820180517bffffffffffffffffffffffffffffffffffffffffffffffffffffffff8381831617835250505050611a89565b5050565b6001816000016000828254019250508190555050565b600081600001549050919050565b600073ffffffffffffffffffffffffffffffffffffffff168273ffffffffffffffffffffffffffffffffffffffff1614156114e8576040517f08c379a00000000000000000000000000000000000000000000000000000000081526004016114df906127cc565b60405180910390fd5b6114f181610f46565b15611531576040517f08c379a0000000000000000000000000000000000000000000000000000000008152600401611528906126cc565b60405180910390fd5b61153d60008383611a7f565b6001600360008473ffffffffffffffffffffffffffffffffffffffff1673ffffffffffffffffffffffffffffffffffffffff168152602001908152602001600020600082825461158d9190612971565b92505081905550816002600083815260200190815260200160002060006101000a81548173ffffffffffffffffffffffffffffffffffffffff021916908373ffffffffffffffffffffffffffffffffffffffff160217905550808273ffffffffffffffffffffffffffffffffffffffff16600073ffffffffffffffffffffffffffffffffffffffff167fddf252ad1be2c89b69c2b068fc378daa952ba7f163c4a11628f55a4df523b3ef60405160405180910390a461164e60008383611a84565b5050565b61165b82610f46565b61169a576040517f08c379a0000000000000000000000000000000000000000000000000000000008152600401611691906127ac565b60405180910390fd5b806006600084815260200190815260200160002090805190602001906116c1929190611e19565b505050565b61175c816040516024016116da919061263a565b6040516020818303038152906040527f41304fac000000000000000000000000000000000000000000000000000000007bffffffffffffffffffffffffffffffffffffffffffffffffffffffff19166020820180517bffffffffffffffffffffffffffffffffffffffffffffffffffffffff8381831617835250505050611a89565b50565b6117f581604051602401611773919061258f565b6040516020818303038152906040527f2c2ecbc2000000000000000000000000000000000000000000000000000000007bffffffffffffffffffffffffffffffffffffffffffffffffffffffff19166020820180517bffffffffffffffffffffffffffffffffffffffffffffffffffffffff8381831617835250505050611a89565b50565b8173ffffffffffffffffffffffffffffffffffffffff168373ffffffffffffffffffffffffffffffffffffffff161415611867576040517f08c379a000000000000000000000000000000000000000000000000000000000815260040161185e9061270c565b60405180910390fd5b80600560008573ffffffffffffffffffffffffffffffffffffffff1673ffffffffffffffffffffffffffffffffffffffff16815260200190815260200160002060008473ffffffffffffffffffffffffffffffffffffffff1673ffffffffffffffffffffffffffffffffffffffff16815260200190815260200160002060006101000a81548160ff0219169083151502179055508173ffffffffffffffffffffffffffffffffffffffff168373ffffffffffffffffffffffffffffffffffffffff167f17307eab39ab6107e8899845ad3d59bd9653f200f220920489ca2b5937696c3183604051611958919061261f565b60405180910390a3505050565b611970848484611151565b61197c84848484611ab2565b6119bb576040517f08c379a00000000000000000000000000000000000000000000000000000000081526004016119b29061268c565b60405180910390fd5b50505050565b606060405180602001604052806000815250905090565b60606119e382610f46565b611a22576040517f08c379a0000000000000000000000000000000000000000000000000000000008152600401611a199061282c565b60405180910390fd5b6000611a2c6119c1565b90506000815111611a4c5760405180602001604052806000815250611a77565b80611a5684611c49565b604051602001611a6792919061256b565b6040516020818303038152906040525b915050919050565b505050565b505050565b60008151905060006a636f6e736f6c652e6c6f679050602083016000808483855afa5050505050565b6000611ad38473ffffffffffffffffffffffffffffffffffffffff16611df6565b15611c3c578373ffffffffffffffffffffffffffffffffffffffff1663150b7a02611afc610fb2565b8786866040518563ffffffff1660e01b8152600401611b1e94939291906125aa565b602060405180830381600087803b158015611b3857600080fd5b505af1925050508015611b6957506040513d601f19601f82011682018060405250810190611b669190612219565b60015b611bec573d8060008114611b99576040519150601f19603f3d011682016040523d82523d6000602084013e611b9e565b606091505b50600081511415611be4576040517f08c379a0000000000000000000000000000000000000000000000000000000008152600401611bdb9061268c565b60405180910390fd5b805181602001fd5b63150b7a0260e01b7bffffffffffffffffffffffffffffffffffffffffffffffffffffffff1916817bffffffffffffffffffffffffffffffffffffffffffffffffffffffff191614915050611c41565b600190505b949350505050565b60606000821415611c91576040518060400160405280600181526020017f30000000000000000000000000000000000000000000000000000000000000008152509050611df1565b600082905060005b60008214611cc3578080611cac90612b45565b915050600a82611cbc91906129c7565b9150611c99565b60008167ffffffffffffffff811115611d05577f4e487b7100000000000000000000000000000000000000000000000000000000600052604160045260246000fd5b6040519080825280601f01601f191660200182016040528015611d375781602001600182028036833780820191505090505b5090505b60008514611dea57600182611d5091906129f8565b9150600a85611d5f9190612b8e565b6030611d6b9190612971565b60f81b818381518110611da7577f4e487b7100000000000000000000000000000000000000000000000000000000600052603260045260246000fd5b60200101907effffffffffffffffffffffffffffffffffffffffffffffffffffffffffffff1916908160001a905350600a85611de391906129c7565b9450611d3b565b8093505050505b919050565b6000808273ffffffffffffffffffffffffffffffffffffffff163b119050919050565b828054611e2590612ae2565b90600052602060002090601f016020900481019282611e475760008555611e8e565b82601f10611e6057805160ff1916838001178555611e8e565b82800160010185558215611e8e579182015b82811115611e8d578251825591602001919060010190611e72565b5b509050611e9b9190611e9f565b5090565b5b80821115611eb8576000816000905550600101611ea0565b5090565b6000611ecf611eca846128cc565b6128a7565b905082815260208101848484011115611ee757600080fd5b611ef2848285612aa0565b509392505050565b6000611f0d611f08846128fd565b6128a7565b905082815260208101848484011115611f2557600080fd5b611f30848285612aa0565b509392505050565b600081359050611f478161310a565b92915050565b600081359050611f5c81613121565b92915050565b600081359050611f7181613138565b92915050565b600081519050611f8681613138565b92915050565b600082601f830112611f9d57600080fd5b8135611fad848260208601611ebc565b91505092915050565b600082601f830112611fc757600080fd5b8135611fd7848260208601611efa565b91505092915050565b600081359050611fef8161314f565b92915050565b60006020828403121561200757600080fd5b600061201584828501611f38565b91505092915050565b6000806040838503121561203157600080fd5b600061203f85828601611f38565b925050602061205085828601611f38565b9150509250929050565b60008060006060848603121561206f57600080fd5b600061207d86828701611f38565b935050602061208e86828701611f38565b925050604061209f86828701611fe0565b9150509250925092565b600080600080608085870312156120bf57600080fd5b60006120cd87828801611f38565b94505060206120de87828801611f38565b93505060406120ef87828801611fe0565b925050606085013567ffffffffffffffff81111561210c57600080fd5b61211887828801611f8c565b91505092959194509250565b6000806040838503121561213757600080fd5b600061214585828601611f38565b925050602061215685828601611f4d565b9150509250929050565b6000806040838503121561217357600080fd5b600061218185828601611f38565b925050602083013567ffffffffffffffff81111561219e57600080fd5b6121aa85828601611fb6565b9150509250929050565b600080604083850312156121c757600080fd5b60006121d585828601611f38565b92505060206121e685828601611fe0565b9150509250929050565b60006020828403121561220257600080fd5b600061221084828501611f62565b91505092915050565b60006020828403121561222b57600080fd5b600061223984828501611f77565b91505092915050565b60006020828403121561225457600080fd5b600061226284828501611fe0565b91505092915050565b61227481612a2c565b82525050565b61228381612a3e565b82525050565b60006122948261292e565b61229e8185612944565b93506122ae818560208601612aaf565b6122b781612c7b565b840191505092915050565b60006122cd82612939565b6122d78185612955565b93506122e7818560208601612aaf565b6122f081612c7b565b840191505092915050565b600061230682612939565b6123108185612966565b9350612320818560208601612aaf565b80840191505092915050565b6000612339603283612955565b915061234482612c8c565b604082019050919050565b600061235c602583612955565b915061236782612cdb565b604082019050919050565b600061237f601c83612955565b915061238a82612d2a565b602082019050919050565b60006123a2602483612955565b91506123ad82612d53565b604082019050919050565b60006123c5601983612955565b91506123d082612da2565b602082019050919050565b60006123e8602c83612955565b91506123f382612dcb565b604082019050919050565b600061240b603883612955565b915061241682612e1a565b604082019050919050565b600061242e602a83612955565b915061243982612e69565b604082019050919050565b6000612451602983612955565b915061245c82612eb8565b604082019050919050565b6000612474602e83612955565b915061247f82612f07565b604082019050919050565b6000612497602083612955565b91506124a282612f56565b602082019050919050565b60006124ba603183612955565b91506124c582612f7f565b604082019050919050565b60006124dd602c83612955565b91506124e882612fce565b604082019050919050565b6000612500602f83612955565b915061250b8261301d565b604082019050919050565b6000612523602183612955565b915061252e8261306c565b604082019050919050565b6000612546603183612955565b9150612551826130bb565b604082019050919050565b61256581612a96565b82525050565b600061257782856122fb565b915061258382846122fb565b91508190509392505050565b60006020820190506125a4600083018461226b565b92915050565b60006080820190506125bf600083018761226b565b6125cc602083018661226b565b6125d9604083018561255c565b81810360608301526125eb8184612289565b905095945050505050565b600060408201905061260b600083018561226b565b612618602083018461255c565b9392505050565b6000602082019050612634600083018461227a565b92915050565b6000602082019050818103600083015261265481846122c2565b905092915050565b6000604082019050818103600083015261267681856122c2565b9050612685602083018461255c565b9392505050565b600060208201905081810360008301526126a58161232c565b9050919050565b600060208201905081810360008301526126c58161234f565b9050919050565b600060208201905081810360008301526126e581612372565b9050919050565b6000602082019050818103600083015261270581612395565b9050919050565b60006020820190508181036000830152612725816123b8565b9050919050565b60006020820190508181036000830152612745816123db565b9050919050565b60006020820190508181036000830152612765816123fe565b9050919050565b6000602082019050818103600083015261278581612421565b9050919050565b600060208201905081810360008301526127a581612444565b9050919050565b600060208201905081810360008301526127c581612467565b9050919050565b600060208201905081810360008301526127e58161248a565b9050919050565b60006020820190508181036000830152612805816124ad565b9050919050565b60006020820190508181036000830152612825816124d0565b9050919050565b60006020820190508181036000830152612845816124f3565b9050919050565b6000602082019050818103600083015261286581612516565b9050919050565b6000602082019050818103600083015261288581612539565b9050919050565b60006020820190506128a1600083018461255c565b92915050565b60006128b16128c2565b90506128bd8282612b14565b919050565b6000604051905090565b600067ffffffffffffffff8211156128e7576128e6612c4c565b5b6128f082612c7b565b9050602081019050919050565b600067ffffffffffffffff82111561291857612917612c4c565b5b61292182612c7b565b9050602081019050919050565b600081519050919050565b600081519050919050565b600082825260208201905092915050565b600082825260208201905092915050565b600081905092915050565b600061297c82612a96565b915061298783612a96565b9250827fffffffffffffffffffffffffffffffffffffffffffffffffffffffffffffffff038211156129bc576129bb612bbf565b5b828201905092915050565b60006129d282612a96565b91506129dd83612a96565b9250826129ed576129ec612bee565b5b828204905092915050565b6000612a0382612a96565b9150612a0e83612a96565b925082821015612a2157612a20612bbf565b5b828203905092915050565b6000612a3782612a76565b9050919050565b60008115159050919050565b60007fffffffff0000000000000000000000000000000000000000000000000000000082169050919050565b600073ffffffffffffffffffffffffffffffffffffffff82169050919050565b6000819050919050565b82818337600083830152505050565b60005b83811015612acd578082015181840152602081019050612ab2565b83811115612adc576000848401525b50505050565b60006002820490506001821680612afa57607f821691505b60208210811415612b0e57612b0d612c1d565b5b50919050565b612b1d82612c7b565b810181811067ffffffffffffffff82111715612b3c57612b3b612c4c565b5b80604052505050565b6000612b5082612a96565b91507fffffffffffffffffffffffffffffffffffffffffffffffffffffffffffffffff821415612b8357612b82612bbf565b5b600182019050919050565b6000612b9982612a96565b9150612ba483612a96565b925082612bb457612bb3612bee565b5b828206905092915050565b7f4e487b7100000000000000000000000000000000000000000000000000000000600052601160045260246000fd5b7f4e487b7100000000000000000000000000000000000000000000000000000000600052601260045260246000fd5b7f4e487b7100000000000000000000000000000000000000000000000000000000600052602260045260246000fd5b7f4e487b7100000000000000000000000000000000000000000000000000000000600052604160045260246000fd5b6000601f19601f8301169050919050565b7f4552433732313a207472616e7366657220746f206e6f6e20455243373231526560008201527f63656976657220696d706c656d656e7465720000000000000000000000000000602082015250565b7f4552433732313a207472616e736665722066726f6d20696e636f72726563742060008201527f6f776e6572000000000000000000000000000000000000000000000000000000602082015250565b7f4552433732313a20746f6b656e20616c7265616479206d696e74656400000000600082015250565b7f4552433732313a207472616e7366657220746f20746865207a65726f2061646460008201527f7265737300000000000000000000000000000000000000000000000000000000602082015250565b7f4552433732313a20617070726f766520746f2063616c6c657200000000000000600082015250565b7f4552433732313a206f70657261746f7220717565727920666f72206e6f6e657860008201527f697374656e7420746f6b656e0000000000000000000000000000000000000000602082015250565b7f4552433732313a20617070726f76652063616c6c6572206973206e6f74206f7760008201527f6e6572206e6f7220617070726f76656420666f7220616c6c0000000000000000602082015250565b7f4552433732313a2062616c616e636520717565727920666f7220746865207a6560008201527f726f206164647265737300000000000000000000000000000000000000000000602082015250565b7f4552433732313a206f776e657220717565727920666f72206e6f6e657869737460008201527f656e7420746f6b656e0000000000000000000000000000000000000000000000602082015250565b7f45524337323155524953746f726167653a2055524920736574206f66206e6f6e60008201527f6578697374656e7420746f6b656e000000000000000000000000000000000000602082015250565b7f4552433732313a206d696e7420746f20746865207a65726f2061646472657373600082015250565b7f45524337323155524953746f726167653a2055524920717565727920666f722060008201527f6e6f6e6578697374656e7420746f6b656e000000000000000000000000000000602082015250565b7f4552433732313a20617070726f76656420717565727920666f72206e6f6e657860008201527f697374656e7420746f6b656e0000000000000000000000000000000000000000602082015250565b7f4552433732314d657461646174613a2055524920717565727920666f72206e6f60008201527f6e6578697374656e7420746f6b656e0000000000000000000000000000000000602082015250565b7f4552433732313a20617070726f76616c20746f2063757272656e74206f776e6560008201527f7200000000000000000000000000000000000000000000000000000000000000602082015250565b7f4552433732313a207472616e736665722063616c6c6572206973206e6f74206f60008201527f776e6572206e6f7220617070726f766564000000000000000000000000000000602082015250565b61311381612a2c565b811461311e57600080fd5b50565b61312a81612a3e565b811461313557600080fd5b50565b61314181612a4a565b811461314c57600080fd5b50565b61315881612a96565b811461316357600080fd5b5056fea2646970667358221220526b2a461d69be04ab7adc5d0aa43e223cea3111f1b3c69b2357d67f035d9ca664736f6c63430008040033",
  "linkReferences": {},
  "deployedLinkReferences": {}
}